:0400000041EF00F0DC
:100008001C82FACF01F0FBCF02F0E9CF03F0EACF70
:1000180004F0E1CF05F0E2CF06F0D9CF07F0DACF50
:1000280008F0F3CF09F0F4CF0AF0F6CF0BF0F7CFD2
:100038000CF0F8CF0DF0F5CF0EF0F2B2F2920EC040
:10004800F5FF0DC0F8FF0CC0F7FF0BC0F6FF0AC0A4
:10005800F4FF09C0F3FF08C0DAFF07C0D9FF06C0E4
:10006800E2FF05C0E1FF04C0EAFF03C0E9FF02C0E8
:10007800FBFF01C0FAFF1C921100BAEF00F001016A
:1000880001010101010101010101010101010A0A46
:100098000104010401040104010401040104010430
:1000A8000101010104010401040104010401040126
:1000B8000000000000000000000000000000000038
:1000C8000000000000000000000000000000000028
:1000D8000000000000000000000000000000000018
:1000E8000000000000000000000000000000000008
:1000F80000000000000000000000000000001DECEF
:1001080001F080928990819A000E106E0A0E0F6E8F
:1001180003EC01F003008082000E106E0A0E0F6ED1
:1001280003EC01F0320E136E818A800E0F6E000E02
:10013800106E1350DFEC00F08990819A000E106E5B
:10014800020E0F6E03EC01F08092000E106E140E7A
:100158000F6E03EC01F081A0F8D7000E106E140E9C
:100168000F6E03EC01F081B0CCD7FDD7860EF66E8A
:10017800000EF76E000EF86E00EE80F010EE80F0C4
:100188000900F5CFEEFFE550E150FAE1660EF66E94
:10019800020EF76E000EF86E00EE14F010EE08F086
:1001A8000900F5CFEEFFE550E150FAE11C901C92F2
:1001B800000183EF00F0116E146A1CD089A002D0F0
:1001C800899001D089801450010DF3500F24D96E05
:1001D800F4501020DA6EDF50126E09D03E0E136E06
:1001E80003D000F000F013061350FBE11206125082
:1001F800F5E1142A1150145CD8B0170CDFD710D0D1
:10020800640E116E09D0040E126E02D000F000F0D8
:1002180012061228D8A4FAD711061128D8A4F3D7A1
:100228000F06D8A010060F28EBE11028D8B412004A
:10023800E7D7F29E000EC26E0F0EC16EDF0E936EF0
:10024800F19E9468AC9A9468FC0E926E000EF26E61
:10025800F288000EF16EF19EF19CF28E1200AAAAAD
:060268000F9901020304DE
:020000040020DA
:08000000FFFFFFFFFFFFFFFF00
:020000040030CA
:0E000000FF02181EFF8180FF0FC00FE00F40AF
:00000001FF
