:0400000049EF00F0D4
:100008004182FACF01F0FBCF02F0E9CF03F0EACF4B
:1000180004F0E1CF05F0E2CF06F0D9CF07F0DACF50
:1000280008F0F3CF09F0F4CF0AF0F6CF0BF0F7CFD2
:100038000CF0F8CF0DF0F5CF0EF0F2A203D0F2924B
:10004800010E406EF2A003D081CF3FF0F2900EC0B7
:10005800F5FF0DC0F8FF0CC0F7FF0BC0F6FF0AC094
:10006800F4FF09C0F3FF08C0DAFF07C0D9FF06C0D4
:10007800E2FF05C0E1FF04C0EAFF03C0E9FF02C0D8
:10008800FBFF01C0FAFF41921100CEEF04F03BC024
:1000980021F03CC022F03DC023F03EC024F02A0EDF
:1000A800156E010E166E210E176E000E186E1D0EBF
:1000B800DCEC03F00009D8A402D0000E120021C025
:1000C80025F025902A0E136E25C014F01D0E81EC24
:1000D80004F00009D8A402D0000E12002B0E156EF1
:1000E800010E166E210E176E000E186E1D0EDCEC3A
:1000F80003F00009D8A402D0000E120021C025F098
:1001080025842B0E136E25C014F01D0E81EC04F00F
:100118000009D8A402D0000E12002A0E156E010E96
:10012800166E210E176E000E186E1D0EDCEC03F015
:100138000009D8A402D0000E120021C025F05E0EDE
:100148002516580E25122A0E136E25C014F01D0E02
:1001580081EC04F00009D8A402D0000E12002B0E86
:10016800156E010E166E210E176E000E186E1D0EFE
:10017800DCEC03F00009D8A402D0000E120021C064
:1001880025F0E40E25161A0E25122B0E136E25C027
:1001980014F01D0E81EC04F00009D8A402D0000E62
:1001A80012002D0E136E840E146E1D0E81EC04F0D9
:1001B8000009D8A402D0000E12002E0E136E040EF1
:1001C800146E1D0E81EC04F00009D8A402D0000EB4
:1001D80012002C0E136E0A0E146E1D0E81EC04F024
:1001E8000009D8A402D0000E12000E0E156E010EE2
:1001F800166E210E176E000E186E1D0EDCEC03F045
:100208000009D8A402D0000E120021C025F0FC0E6F
:1002180025160E0E136E25C014F01D0E81EC04F089
:100228000009D8A402D0000E1200290E136E400E49
:10023800146E1D0E81EC04F00009D8A402D0000E43
:100248001200150E136EF80E146E1D0E81EC04F0DC
:100258000009D8A402D0000E1200170E136E180E53
:10026800146E1D0E81EC04F00009D8A402D0000E13
:100278001200180E136E040E146E1D0E81EC04F09D
:100288000009D8A402D0000E12000C0E156E010E43
:10029800166E210E176E000E186E1D0EDCEC03F0A4
:1002A8000009D8A402D0000E12002A0E156E010E05
:1002B800166E210E176E000E186E1D0EDCEC03F084
:1002C8000009D8A402D0000E120021C025F0258014
:1002D8002A0E136E25C014F01D0E81EC04F00009DF
:1002E800D8A402D0000E1200010E1200000E366EC5
:1002F800000E356E000E376E000E266E27EC05F0E8
:1003080050EC05F04BEC00F0266E0C0E156E010E4D
:10031800166E370E176E000E186E1D0EDCEC03F00D
:100328003750D8B416D00B0E156E010E166E350E5A
:10033800176E000E186E1D0EDCEC03F0160E156E0F
:10034800010E166E360E176E000E186E1D0EDCECC2
:1003580003F03750D8A4D9D7809289900300010EB2
:10036800156E060E166E290E176E000E186E1D0EEF
:10037800DCEC03F02AC00FF0295057EC04F00FC052
:100388002FF010C030F02CC00FF02B5057EC04F0B9
:100398000FC033F010C034F02EC00FF02D5057ECC2
:1003A80004F00FC031F010C032F0000E3A6E3A502F
:1003B800010D800EF324D96E000EF420DA6E070EBC
:1003C800DF6E3A2A3A50010D800EF324D96E000EE2
:1003D800F420DA6E36C0DFFF3A2A000E366E2FC0E0
:1003E80038F030C039F03A50010D800EF324D96E40
:1003F800000EF420DA6E38C0DFFF3A2A3A50010DB9
:10040800800EF324D96E000EF420DA6E39C0DFFFB7
:100418003A2A33C038F034C039F03A50010D800E12
:10042800F324D96E000EF420DA6E38C0DFFF3A2AC2
:100438003A50010D800EF324D96E000EF420DA6EC6
:1004480039C0DFFF3A2A31C038F032C039F03A50AB
:10045800010D800EF324D96E000EF420DA6E38C038
:10046800DFFF3A2A3A50010D800EF324D96E000EB0
:10047800F420DA6E39C0DFFF3A2A810E1C6E000EB6
:100488001D6E070E1E6EA9EC04F01CC038F01DC0CE
:1004980039F03A50010D800EF324D96E000EF42085
:1004A800DA6E38C0DFFF3A2A3A50010D800EF32485
:1004B800D96E000EF420DA6E39C0DFFF3A2A800EBA
:1004C8000F6E000E106E3AC011F0126A800E136E95
:1004D800010E146E9BEC02F00FC027F010C028F03C
:1004E800818A808237EC03F027C00FF028C010F013
:1004F800800E116E010E126E8BEC03F080928990C3
:10050800819A4050D8B401D7000E106E140E0F6EA9
:100518000DEC05F081A0F8D7000E106E140E0F6ECA
:100528000DEC05F081A0FED7000E406EEED61250FD
:100538000CE1410E115CD8B008D00F501010D8B49F
:1005480004D013501410D8A405D0000E106E000E5D
:100558000F6E1200000E156E000E1B6E000E176E49
:10056800000E166E16C01CF017C01DF0010E1A6E94
:1005780066D0010E1A6E000E196E070E196401D0AE
:100588005CD016500F24D96E17501020DA6EDF5049
:100598001A140009D8B402D0010E01D0000E186E4A
:1005A80015501818D8A427D01B04D8A412D01C5052
:1005B8001324D96E1D501420DA6E000EDF6E1C4A0B
:1005C8001D2A1C501324D96E1D501420DA6E010EFA
:1005D8002BD01C501324D96E1D501420DA6E010E36
:1005E800DF6E1C4A1D2A1C501324D96E1D5014207E
:1005F800DA6E000E19D01B04D8A40DD0000E1B6EA5
:100608001C501324D96E1D501420DA6E020E0CD023
:100618001C4A1D2A0BD0010E1B6E1C501324D96EC8
:100628001D501420DA6E030EDF6EF2D718C015F0D5
:100638001A501A241A6E192AA0D7164A172A1150C6
:10064800165C12501758D8A094D7040E1D5CD8A079
:1006580005D0000E106E000E0F6E12001CC00FF0B9
:100668001DC010F01200100E0F6E8980C80E116E9A
:1006780001D011061150D8A4FCD78990C80E116E6C
:1006880001D011061150D8A4FCD70F060F50D8A4DA
:10069800ECD789800C0E106E08D04A0E116E01D06E
:1006A80011061150D8A4FCD710061050D8A4F5D7BD
:1006B80089900D0E106E08D03C0E116E01D01106F7
:1006C8001150D8A4FCD710061050D8A4F5D78980AB
:1006D800050E106E08D04A0E116E01D01106115089
:1006E800D8A4FCD710061050D8A4F5D78990120EBC
:1006F800106E08D0140E116E01D011061150D8A436
:10070800FCD710061050D8A4F5D7818A120089802A
:10071800460E166E01D016061650D8A4FCD789903E
:10072800000E146E000E136E25D013501124D96ECE
:1007380014501220DA6EDF50156E1550D8A403D06D
:100748008980460E0CD0020E1518D8A403D08980D3
:10075800E90E05D01504D8A404D08990500E166E61
:1007680004D08990166801D016061650D8A4FCD774
:10077800134A142A0F50135C10501458D8A0D5D718
:1007880089A002D0899001D08980166801D0160608
:100798001650D8A4FCD789A002D0899001D08980AE
:1007A800166801D016061650D8A4FCD789901200F6
:1007B8001F6E3F0E166402D0000E120015C013F013
:1007C8001F50F1EC04F00009D8A402D0000E12006A
:1007D8001F503EEC05F00009D8A402D0000E12000C
:1007E800000E206E28D02050010DF3501724D96E2A
:1007F800F4501820DA6E78EC05F0DF6E2050196E90
:100808001A6AFF0E1B6EFF0E1C6E16501D6E1E6AB6
:100818001B501D261C501E2219501D1808E11A5085
:100828001E18D8A404D0000E5DEC05F003D0010E0C
:100838005DEC05F0202A1650205CD8A0D4D78BECAC
:1008480005F02050120011C01AF01B6A1A500F1838
:10085800186E1B501018196EFF0E1814126E000E29
:100868001914136ED89012361336FF0E1224F66E32
:100878007D0E1320F76E0900F5CF14F00900F5CFAF
:1008880015F00FC016F010C017F017C016F0176A51
:10089800145016180F6E15501718106E0FC00FF061
:1008A80010C010F01200146E14C015F0166A15501E
:1008B800166E156A15500F10156E1650166E15C067
:1008C80011F016C012F0040E136E123412321132E7
:1008D800132EFBD711C015F012C016F014AE08D0B5
:1008E800156C161ED8B0162A156C161ED8B0162A06
:1008F80015C00FF016C010F01200156E86EC05F04A
:10090800000E106E1550152468EC05F080EC05F00B
:10091800E806D8A402D0000E1200135070EC05F0BF
:1009280080EC05F0E806D8A402D0000E120014509E
:1009380070EC05F080EC05F0E806D8A402D0000EB3
:1009480012008BEC05F0010E12001F6820681F686A
:100958002068000E216E15D01FC00FF020C010F0C7
:100968002150010DF3501C24D96EF4501D20DA6E6D
:10097800DF50116E27EC04F00FC01FF010C020F0FC
:10098800212A1E50215CD8A0E7D71FC01CF020C028
:100998001DF0120001EE80F014EE00F0EE6AE55052
:1009A800E150FCE1E250FAE101EE00F0800EEE6A5F
:1009B800E806FDE100EE80F0400EEE6AE806FDE193
:1009C800406A3F6A3E6A3D6A3C6A3B6A419041928E
:1009D800000EF86E00017AEF01F0146E86EC05F057
:1009E800000E106E1450142468EC05F080EC05F02D
:1009F800E806D8A402D0000E1200135070EC05F0DF
:100A080080EC05F0E806D8A402D0000E1200010E12
:100A1800120010D0640E116E09D0040E126E02D0AE
:100A280000F000F012061228D8A4FAD711061128EF
:100A3800D8A4F3D70F06D8A010060F28EBE110288A
:100A4800D8B41200E7D7F29E000EC26E0F0EC16E28
:100A5800DF0E936EF19E9468AC9A9468FC0E926EC9
:100A6800000EF26EF288F286000EF16EF19EF19C95
:100A7800F28E1200136E86EC05F0010E106E135004
:100A8800132468EC05F080EC05F0E806D8A402D041
:100A9800000E1200010E1200000EC66EC68AC6862F
:100AA800C694C692C690C688090EC86E000EC76E58
:100AB80012000F6E0FA002D0C59A01D0C58AC58852
:100AC8009EA6FED79E961200116E11501010126E3F
:100AD800125070EC05F012000F6E0FC0C9FF9EA6F1
:100AE800FED79E96000E1200C5869EA6FED79E963D
:100AF800C9CF0FF00F501200000EC5BC010E0F6ECB
:100B08000F501200C5809EA6FED79E961200C5847F
:080B18009EA6FED79E96120076
:107DFE00000000C1C081C1400101C3C00380024127
:107E0E00C201C6C006800741C70005C1C581C44076
:107E1E000401CCC00C800D41CD000FC1CF81CE40EE
:107E2E000E000AC1CA81CB400B01C9C009800841AE
:107E3E00C801D8C018801941D9001BC1DB81DA40B6
:107E4E001A001EC1DE81DF401F01DDC01D801C41F6
:107E5E00DC0014C1D481D5401501D7C0178016415E
:107E6E00D601D2C012801341D30011C1D181D040AE
:107E7E001001F0C030803141F10033C1F381F24086
:107E8E00320036C1F681F7403701F5C035803441F6
:107E9E00F4003CC1FC81FD403D01FFC03F803E41EE
:107EAE00FE01FAC03A803B41FB0039C1F981F8402E
:107EBE00380028C1E881E9402901EBC02B802A4116
:107ECE00EA01EEC02E802F41EF002DC1ED81EC4076
:107EDE002C01E4C024802541E50027C1E781E6405E
:107EEE00260022C1E281E3402301E1C0218020412E
:107EFE00E001A0C060806141A10063C1A381A240E6
:107F0E00620066C1A681A7406701A5C06580644175
:107F1E00A4006CC1AC81AD406D01AFC06F806E41ED
:107F2E00AE01AAC06A806B41AB0069C1A981A840AD
:107F3E00680078C1B881B9407901BBC07B807A41B5
:107F4E00BA01BEC07E807F41BF007DC1BD81BC40F5
:107F5E007C01B4C074807541B50077C1B781B6405D
:107F6E00760072C1B281B3407301B1C071807041AD
:107F7E00B00050C190819140510193C05380524145
:107F8E00920196C056805741970055C195819440F5
:107F9E0054019CC05C805D419D005FC19F819E40ED
:107FAE005E005AC19A819B405B0199C0598058412D
:107FBE00980188C04880494189004BC18B818A4015
:107FCE004A004EC18E818F404F018DC04D804C4175
:107FDE008C0044C184818540450187C0478046415D
:107FEE00860182C042804341830041C1818180402D
:027FFE00400041
:020000040020DA
:08000000FFFFFFFFFFFFFFFF00
:020000040030CA
:0E000000FF02181EFF8180FF0FC00FE00F40AF
:00000001FF
